{"contracts/Polichain.sol":{"Polichain":{"abi":[{"inputs":[{"internalType":"uint256","name":"numeroPartidas","type":"uint256"}],"name":"CalculaWinKda","outputs":[{"internalType":"uint256","name":"winrate","type":"uint256"},{"internalType":"uint256","name":"kda","type":"uint256"}],"stateMutability":"view","type":"function"},{"inputs":[{"internalType":"string","name":"_championName","type":"string"},{"internalType":"string","name":"_role","type":"string"},{"internalType":"uint256","name":"_kills","type":"uint256"},{"internalType":"uint256","name":"_deaths","type":"uint256"},{"internalType":"uint256","name":"_assists","type":"uint256"},{"internalType":"bool","name":"_result","type":"bool"}],"name":"createGame","outputs":[],"stateMutability":"nonpayable","type":"function"},{"inputs":[{"internalType":"uint256","name":"","type":"uint256"}],"name":"games","outputs":[{"internalType":"uint256","name":"id","type":"uint256"},{"internalType":"string","name":"championName","type":"string"},{"internalType":"string","name":"role","type":"string"},{"internalType":"uint256","name":"kills","type":"uint256"},{"internalType":"uint256","name":"deaths","type":"uint256"},{"internalType":"uint256","name":"assists","type":"uint256"},{"internalType":"bool","name":"result","type":"bool"}],"stateMutability":"view","type":"function"},{"inputs":[],"name":"itemCont","outputs":[{"internalType":"uint256","name":"","type":"uint256"}],"stateMutability":"view","type":"function"},{"inputs":[],"name":"owner","outputs":[{"internalType":"address","name":"","type":"address"}],"stateMutability":"view","type":"function"},{"inputs":[{"internalType":"uint256","name":"novoId","type":"uint256"},{"internalType":"string","name":"_championName","type":"string"},{"internalType":"string","name":"_role","type":"string"},{"internalType":"uint256","name":"_kills","type":"uint256"},{"internalType":"uint256","name":"_deaths","type":"uint256"},{"internalType":"uint256","name":"_assists","type":"uint256"},{"internalType":"bool","name":"_result","type":"bool"}],"name":"updateGame","outputs":[],"stateMutability":"nonpayable","type":"function"}],"evm":{"bytecode":{"linkReferences":{},"object":"608060405234801561001057600080fd5b50611147806100206000396000f3fe608060405234801561001057600080fd5b50600436106100625760003560e01c8063117a5b9014610067578063504b35f61461009d5780638da5cb5b146100b9578063a2dfeb17146100d7578063a7c11f5b146100f5578063dc53b77c14610126575b600080fd5b610081600480360381019061007c91906106db565b610142565b60405161009497969594939291906107c2565b60405180910390f35b6100b760048036038101906100b291906109a0565b6102b1565b005b6100c16103cf565b6040516100ce9190610abb565b60405180910390f35b6100df6103f3565b6040516100ec9190610ad6565b60405180910390f35b61010f600480360381019061010a91906106db565b6103f9565b60405161011d929190610af1565b60405180910390f35b610140600480360381019061013b9190610b1a565b61059c565b005b6002818154811061015257600080fd5b906000526020600020906007020160009150905080600001549080600101805461017b90610c0e565b80601f01602080910402602001604051908101604052809291908181526020018280546101a790610c0e565b80156101f45780601f106101c9576101008083540402835291602001916101f4565b820191906000526020600020905b8154815290600101906020018083116101d757829003601f168201915b50505050509080600201805461020990610c0e565b80601f016020809104026020016040519081016040528092919081815260200182805461023590610c0e565b80156102825780601f1061025757610100808354040283529160200191610282565b820191906000526020600020905b81548152906001019060200180831161026557829003601f168201915b5050505050908060030154908060040154908060050154908060060160009054906101000a900460ff16905087565b60028054905087106102f8576040517f08c379a00000000000000000000000000000000000000000000000000000000081526004016102ef90610c8b565b60405180910390fd5b6040518060e001604052808881526020018781526020018681526020018581526020018481526020018381526020018215158152506002888154811061034157610340610cab565b5b906000526020600020906007020160008201518160000155602082015181600101908161036e9190610e86565b5060408201518160020190816103849190610e86565b50606082015181600301556080820151816004015560a0820151816005015560c08201518160060160006101000a81548160ff02191690831515021790555090505050505050505050565b60008054906101000a900473ffffffffffffffffffffffffffffffffffffffff1681565b60015481565b6000806000831161043f576040517f08c379a000000000000000000000000000000000000000000000000000000000815260040161043690610fa4565b60405180910390fd5b60008060008060005b87811015610543576002818154811061046457610463610cab565b5b906000526020600020906007020160060160009054906101000a900460ff161561049757848061049390610ff3565b9550505b600281815481106104ab576104aa610cab565b5b906000526020600020906007020160030154846104c8919061103b565b9350600281815481106104de576104dd610cab565b5b906000526020600020906007020160040154836104fb919061103b565b92506002818154811061051157610510610cab565b5b9060005260206000209060070201600501548261052e919061103b565b9150808061053b90610ff3565b915050610448565b5086606485610552919061106f565b61055c91906110e0565b955060008203610579578083610572919061103b565b9450610593565b818184610586919061103b565b61059091906110e0565b94505b50505050915091565b6000600280549050905060026040518060e0016040528083815260200189815260200188815260200187815260200186815260200185815260200184151581525090806001815401808255809150506001900390600052602060002090600702016000909190919091506000820151816000015560208201518160010190816106259190610e86565b50604082015181600201908161063b9190610e86565b50606082015181600301556080820151816004015560a0820151816005015560c08201518160060160006101000a81548160ff021916908315150217905550505060028054905060018190555050505050505050565b6000604051905090565b600080fd5b600080fd5b6000819050919050565b6106b8816106a5565b81146106c357600080fd5b50565b6000813590506106d5816106af565b92915050565b6000602082840312156106f1576106f061069b565b5b60006106ff848285016106c6565b91505092915050565b610711816106a5565b82525050565b600081519050919050565b600082825260208201905092915050565b60005b83811015610751578082015181840152602081019050610736565b60008484015250505050565b6000601f19601f8301169050919050565b600061077982610717565b6107838185610722565b9350610793818560208601610733565b61079c8161075d565b840191505092915050565b60008115159050919050565b6107bc816107a7565b82525050565b600060e0820190506107d7600083018a610708565b81810360208301526107e9818961076e565b905081810360408301526107fd818861076e565b905061080c6060830187610708565b6108196080830186610708565b61082660a0830185610708565b61083360c08301846107b3565b98975050505050505050565b600080fd5b600080fd5b7f4e487b7100000000000000000000000000000000000000000000000000000000600052604160045260246000fd5b6108818261075d565b810181811067ffffffffffffffff821117156108a05761089f610849565b5b80604052505050565b60006108b3610691565b90506108bf8282610878565b919050565b600067ffffffffffffffff8211156108df576108de610849565b5b6108e88261075d565b9050602081019050919050565b82818337600083830152505050565b6000610917610912846108c4565b6108a9565b90508281526020810184848401111561093357610932610844565b5b61093e8482856108f5565b509392505050565b600082601f83011261095b5761095a61083f565b5b813561096b848260208601610904565b91505092915050565b61097d816107a7565b811461098857600080fd5b50565b60008135905061099a81610974565b92915050565b600080600080600080600060e0888a0312156109bf576109be61069b565b5b60006109cd8a828b016106c6565b975050602088013567ffffffffffffffff8111156109ee576109ed6106a0565b5b6109fa8a828b01610946565b965050604088013567ffffffffffffffff811115610a1b57610a1a6106a0565b5b610a278a828b01610946565b9550506060610a388a828b016106c6565b9450506080610a498a828b016106c6565b93505060a0610a5a8a828b016106c6565b92505060c0610a6b8a828b0161098b565b91505092959891949750929550565b600073ffffffffffffffffffffffffffffffffffffffff82169050919050565b6000610aa582610a7a565b9050919050565b610ab581610a9a565b82525050565b6000602082019050610ad06000830184610aac565b92915050565b6000602082019050610aeb6000830184610708565b92915050565b6000604082019050610b066000830185610708565b610b136020830184610708565b9392505050565b60008060008060008060c08789031215610b3757610b3661069b565b5b600087013567ffffffffffffffff811115610b5557610b546106a0565b5b610b6189828a01610946565b965050602087013567ffffffffffffffff811115610b8257610b816106a0565b5b610b8e89828a01610946565b9550506040610b9f89828a016106c6565b9450506060610bb089828a016106c6565b9350506080610bc189828a016106c6565b92505060a0610bd289828a0161098b565b9150509295509295509295565b7f4e487b7100000000000000000000000000000000000000000000000000000000600052602260045260246000fd5b60006002820490506001821680610c2657607f821691505b602082108103610c3957610c38610bdf565b5b50919050565b7f70617274696461206e616f206578697374650000000000000000000000000000600082015250565b6000610c75601283610722565b9150610c8082610c3f565b602082019050919050565b60006020820190508181036000830152610ca481610c68565b9050919050565b7f4e487b7100000000000000000000000000000000000000000000000000000000600052603260045260246000fd5b60008190508160005260206000209050919050565b60006020601f8301049050919050565b600082821b905092915050565b600060088302610d3c7fffffffffffffffffffffffffffffffffffffffffffffffffffffffffffffffff82610cff565b610d468683610cff565b95508019841693508086168417925050509392505050565b6000819050919050565b6000610d83610d7e610d79846106a5565b610d5e565b6106a5565b9050919050565b6000819050919050565b610d9d83610d68565b610db1610da982610d8a565b848454610d0c565b825550505050565b600090565b610dc6610db9565b610dd1818484610d94565b505050565b5b81811015610df557610dea600082610dbe565b600181019050610dd7565b5050565b601f821115610e3a57610e0b81610cda565b610e1484610cef565b81016020851015610e23578190505b610e37610e2f85610cef565b830182610dd6565b50505b505050565b600082821c905092915050565b6000610e5d60001984600802610e3f565b1980831691505092915050565b6000610e768383610e4c565b9150826002028217905092915050565b610e8f82610717565b67ffffffffffffffff811115610ea857610ea7610849565b5b610eb28254610c0e565b610ebd828285610df9565b600060209050601f831160018114610ef05760008415610ede578287015190505b610ee88582610e6a565b865550610f50565b601f198416610efe86610cda565b60005b82811015610f2657848901518255600182019150602085019450602081019050610f01565b86831015610f435784890151610f3f601f891682610e4c565b8355505b6001600288020188555050505b505050505050565b7f5175616e74696461646520646520706172746964617320696e76616c69646100600082015250565b6000610f8e601f83610722565b9150610f9982610f58565b602082019050919050565b60006020820190508181036000830152610fbd81610f81565b9050919050565b7f4e487b7100000000000000000000000000000000000000000000000000000000600052601160045260246000fd5b6000610ffe826106a5565b91507fffffffffffffffffffffffffffffffffffffffffffffffffffffffffffffffff82036110305761102f610fc4565b5b600182019050919050565b6000611046826106a5565b9150611051836106a5565b925082820190508082111561106957611068610fc4565b5b92915050565b600061107a826106a5565b9150611085836106a5565b9250828202611093816106a5565b915082820484148315176110aa576110a9610fc4565b5b5092915050565b7f4e487b7100000000000000000000000000000000000000000000000000000000600052601260045260246000fd5b60006110eb826106a5565b91506110f6836106a5565b925082611106576111056110b1565b5b82820490509291505056fea264697066735822122062f5a055a204d1dde2364be9e1faa71d1bca2ed4073728f6d1d6a9ac707301ce64736f6c63430008130033","opcodes":"PUSH1 0x80 PUSH1 0x40 MSTORE CALLVALUE DUP1 ISZERO PUSH2 0x10 JUMPI PUSH1 0x0 DUP1 REVERT JUMPDEST POP PUSH2 0x1147 DUP1 PUSH2 0x20 PUSH1 0x0 CODECOPY PUSH1 0x0 RETURN INVALID PUSH1 0x80 PUSH1 0x40 MSTORE CALLVALUE DUP1 ISZERO PUSH2 0x10 JUMPI PUSH1 0x0 DUP1 REVERT JUMPDEST POP PUSH1 0x4 CALLDATASIZE LT PUSH2 0x62 JUMPI PUSH1 0x0 CALLDATALOAD PUSH1 0xE0 SHR DUP1 PUSH4 0x117A5B90 EQ PUSH2 0x67 JUMPI DUP1 PUSH4 0x504B35F6 EQ PUSH2 0x9D JUMPI DUP1 PUSH4 0x8DA5CB5B EQ PUSH2 0xB9 JUMPI DUP1 PUSH4 0xA2DFEB17 EQ PUSH2 0xD7 JUMPI DUP1 PUSH4 0xA7C11F5B EQ PUSH2 0xF5 JUMPI DUP1 PUSH4 0xDC53B77C EQ PUSH2 0x126 JUMPI JUMPDEST PUSH1 0x0 DUP1 REVERT JUMPDEST PUSH2 0x81 PUSH1 0x4 DUP1 CALLDATASIZE SUB DUP2 ADD SWAP1 PUSH2 0x7C SWAP2 SWAP1 PUSH2 0x6DB JUMP JUMPDEST PUSH2 0x142 JUMP JUMPDEST PUSH1 0x40 MLOAD PUSH2 0x94 SWAP8 SWAP7 SWAP6 SWAP5 SWAP4 SWAP3 SWAP2 SWAP1 PUSH2 0x7C2 JUMP JUMPDEST PUSH1 0x40 MLOAD DUP1 SWAP2 SUB SWAP1 RETURN JUMPDEST PUSH2 0xB7 PUSH1 0x4 DUP1 CALLDATASIZE SUB DUP2 ADD SWAP1 PUSH2 0xB2 SWAP2 SWAP1 PUSH2 0x9A0 JUMP JUMPDEST PUSH2 0x2B1 JUMP JUMPDEST STOP JUMPDEST PUSH2 0xC1 PUSH2 0x3CF JUMP JUMPDEST PUSH1 0x40 MLOAD PUSH2 0xCE SWAP2 SWAP1 PUSH2 0xABB JUMP JUMPDEST PUSH1 0x40 MLOAD DUP1 SWAP2 SUB SWAP1 RETURN JUMPDEST PUSH2 0xDF PUSH2 0x3F3 JUMP JUMPDEST PUSH1 0x40 MLOAD PUSH2 0xEC SWAP2 SWAP1 PUSH2 0xAD6 JUMP JUMPDEST PUSH1 0x40 MLOAD DUP1 SWAP2 SUB SWAP1 RETURN JUMPDEST PUSH2 0x10F PUSH1 0x4 DUP1 CALLDATASIZE SUB DUP2 ADD SWAP1 PUSH2 0x10A SWAP2 SWAP1 PUSH2 0x6DB JUMP JUMPDEST PUSH2 0x3F9 JUMP JUMPDEST PUSH1 0x40 MLOAD PUSH2 0x11D SWAP3 SWAP2 SWAP1 PUSH2 0xAF1 JUMP JUMPDEST PUSH1 0x40 MLOAD DUP1 SWAP2 SUB SWAP1 RETURN JUMPDEST PUSH2 0x140 PUSH1 0x4 DUP1 CALLDATASIZE SUB DUP2 ADD SWAP1 PUSH2 0x13B SWAP2 SWAP1 PUSH2 0xB1A JUMP JUMPDEST PUSH2 0x59C JUMP JUMPDEST STOP JUMPDEST PUSH1 0x2 DUP2 DUP2 SLOAD DUP2 LT PUSH2 0x152 JUMPI PUSH1 0x0 DUP1 REVERT JUMPDEST SWAP1 PUSH1 0x0 MSTORE PUSH1 0x20 PUSH1 0x0 KECCAK256 SWAP1 PUSH1 0x7 MUL ADD PUSH1 0x0 SWAP2 POP SWAP1 POP DUP1 PUSH1 0x0 ADD SLOAD SWAP1 DUP1 PUSH1 0x1 ADD DUP1 SLOAD PUSH2 0x17B SWAP1 PUSH2 0xC0E JUMP JUMPDEST DUP1 PUSH1 0x1F ADD PUSH1 0x20 DUP1 SWAP2 DIV MUL PUSH1 0x20 ADD PUSH1 0x40 MLOAD SWAP1 DUP2 ADD PUSH1 0x40 MSTORE DUP1 SWAP3 SWAP2 SWAP1 DUP2 DUP2 MSTORE PUSH1 0x20 ADD DUP3 DUP1 SLOAD PUSH2 0x1A7 SWAP1 PUSH2 0xC0E JUMP JUMPDEST DUP1 ISZERO PUSH2 0x1F4 JUMPI DUP1 PUSH1 0x1F LT PUSH2 0x1C9 JUMPI PUSH2 0x100 DUP1 DUP4 SLOAD DIV MUL DUP4 MSTORE SWAP2 PUSH1 0x20 ADD SWAP2 PUSH2 0x1F4 JUMP JUMPDEST DUP3 ADD SWAP2 SWAP1 PUSH1 0x0 MSTORE PUSH1 0x20 PUSH1 0x0 KECCAK256 SWAP1 JUMPDEST DUP2 SLOAD DUP2 MSTORE SWAP1 PUSH1 0x1 ADD SWAP1 PUSH1 0x20 ADD DUP1 DUP4 GT PUSH2 0x1D7 JUMPI DUP3 SWAP1 SUB PUSH1 0x1F AND DUP3 ADD SWAP2 JUMPDEST POP POP POP POP POP SWAP1 DUP1 PUSH1 0x2 ADD DUP1 SLOAD PUSH2 0x209 SWAP1 PUSH2 0xC0E JUMP JUMPDEST DUP1 PUSH1 0x1F ADD PUSH1 0x20 DUP1 SWAP2 DIV MUL PUSH1 0x20 ADD PUSH1 0x40 MLOAD SWAP1 DUP2 ADD PUSH1 0x40 MSTORE DUP1 SWAP3 SWAP2 SWAP1 DUP2 DUP2 MSTORE PUSH1 0x20 ADD DUP3 DUP1 SLOAD PUSH2 0x235 SWAP1 PUSH2 0xC0E JUMP JUMPDEST DUP1 ISZERO PUSH2 0x282 JUMPI DUP1 PUSH1 0x1F LT PUSH2 0x257 JUMPI PUSH2 0x100 DUP1 DUP4 SLOAD DIV MUL DUP4 MSTORE SWAP2 PUSH1 0x20 ADD SWAP2 PUSH2 0x282 JUMP JUMPDEST DUP3 ADD SWAP2 SWAP1 PUSH1 0x0 MSTORE PUSH1 0x20 PUSH1 0x0 KECCAK256 SWAP1 JUMPDEST DUP2 SLOAD DUP2 MSTORE SWAP1 PUSH1 0x1 ADD SWAP1 PUSH1 0x20 ADD DUP1 DUP4 GT PUSH2 0x265 JUMPI DUP3 SWAP1 SUB PUSH1 0x1F AND DUP3 ADD SWAP2 JUMPDEST POP POP POP POP POP SWAP1 DUP1 PUSH1 0x3 ADD SLOAD SWAP1 DUP1 PUSH1 0x4 ADD SLOAD SWAP1 DUP1 PUSH1 0x5 ADD SLOAD SWAP1 DUP1 PUSH1 0x6 ADD PUSH1 0x0 SWAP1 SLOAD SWAP1 PUSH2 0x100 EXP SWAP1 DIV PUSH1 0xFF AND SWAP1 POP DUP8 JUMP JUMPDEST PUSH1 0x2 DUP1 SLOAD SWAP1 POP DUP8 LT PUSH2 0x2F8 JUMPI PUSH1 0x40 MLOAD PUSH32 0x8C379A000000000000000000000000000000000000000000000000000000000 DUP2 MSTORE PUSH1 0x4 ADD PUSH2 0x2EF SWAP1 PUSH2 0xC8B JUMP JUMPDEST PUSH1 0x40 MLOAD DUP1 SWAP2 SUB SWAP1 REVERT JUMPDEST PUSH1 0x40 MLOAD DUP1 PUSH1 0xE0 ADD PUSH1 0x40 MSTORE DUP1 DUP9 DUP2 MSTORE PUSH1 0x20 ADD DUP8 DUP2 MSTORE PUSH1 0x20 ADD DUP7 DUP2 MSTORE PUSH1 0x20 ADD DUP6 DUP2 MSTORE PUSH1 0x20 ADD DUP5 DUP2 MSTORE PUSH1 0x20 ADD DUP4 DUP2 MSTORE PUSH1 0x20 ADD DUP3 ISZERO ISZERO DUP2 MSTORE POP PUSH1 0x2 DUP9 DUP2 SLOAD DUP2 LT PUSH2 0x341 JUMPI PUSH2 0x340 PUSH2 0xCAB JUMP JUMPDEST JUMPDEST SWAP1 PUSH1 0x0 MSTORE PUSH1 0x20 PUSH1 0x0 KECCAK256 SWAP1 PUSH1 0x7 MUL ADD PUSH1 0x0 DUP3 ADD MLOAD DUP2 PUSH1 0x0 ADD SSTORE PUSH1 0x20 DUP3 ADD MLOAD DUP2 PUSH1 0x1 ADD SWAP1 DUP2 PUSH2 0x36E SWAP2 SWAP1 PUSH2 0xE86 JUMP JUMPDEST POP PUSH1 0x40 DUP3 ADD MLOAD DUP2 PUSH1 0x2 ADD SWAP1 DUP2 PUSH2 0x384 SWAP2 SWAP1 PUSH2 0xE86 JUMP JUMPDEST POP PUSH1 0x60 DUP3 ADD MLOAD DUP2 PUSH1 0x3 ADD SSTORE PUSH1 0x80 DUP3 ADD MLOAD DUP2 PUSH1 0x4 ADD SSTORE PUSH1 0xA0 DUP3 ADD MLOAD DUP2 PUSH1 0x5 ADD SSTORE PUSH1 0xC0 DUP3 ADD MLOAD DUP2 PUSH1 0x6 ADD PUSH1 0x0 PUSH2 0x100 EXP DUP2 SLOAD DUP2 PUSH1 0xFF MUL NOT AND SWAP1 DUP4 ISZERO ISZERO MUL OR SWAP1 SSTORE POP SWAP1 POP POP POP POP POP POP POP POP POP JUMP JUMPDEST PUSH1 0x0 DUP1 SLOAD SWAP1 PUSH2 0x100 EXP SWAP1 DIV PUSH20 0xFFFFFFFFFFFFFFFFFFFFFFFFFFFFFFFFFFFFFFFF AND DUP2 JUMP JUMPDEST PUSH1 0x1 SLOAD DUP2 JUMP JUMPDEST PUSH1 0x0 DUP1 PUSH1 0x0 DUP4 GT PUSH2 0x43F JUMPI PUSH1 0x40 MLOAD PUSH32 0x8C379A000000000000000000000000000000000000000000000000000000000 DUP2 MSTORE PUSH1 0x4 ADD PUSH2 0x436 SWAP1 PUSH2 0xFA4 JUMP JUMPDEST PUSH1 0x40 MLOAD DUP1 SWAP2 SUB SWAP1 REVERT JUMPDEST PUSH1 0x0 DUP1 PUSH1 0x0 DUP1 PUSH1 0x0 JUMPDEST DUP8 DUP2 LT ISZERO PUSH2 0x543 JUMPI PUSH1 0x2 DUP2 DUP2 SLOAD DUP2 LT PUSH2 0x464 JUMPI PUSH2 0x463 PUSH2 0xCAB JUMP JUMPDEST JUMPDEST SWAP1 PUSH1 0x0 MSTORE PUSH1 0x20 PUSH1 0x0 KECCAK256 SWAP1 PUSH1 0x7 MUL ADD PUSH1 0x6 ADD PUSH1 0x0 SWAP1 SLOAD SWAP1 PUSH2 0x100 EXP SWAP1 DIV PUSH1 0xFF AND ISZERO PUSH2 0x497 JUMPI DUP5 DUP1 PUSH2 0x493 SWAP1 PUSH2 0xFF3 JUMP JUMPDEST SWAP6 POP POP JUMPDEST PUSH1 0x2 DUP2 DUP2 SLOAD DUP2 LT PUSH2 0x4AB JUMPI PUSH2 0x4AA PUSH2 0xCAB JUMP JUMPDEST JUMPDEST SWAP1 PUSH1 0x0 MSTORE PUSH1 0x20 PUSH1 0x0 KECCAK256 SWAP1 PUSH1 0x7 MUL ADD PUSH1 0x3 ADD SLOAD DUP5 PUSH2 0x4C8 SWAP2 SWAP1 PUSH2 0x103B JUMP JUMPDEST SWAP4 POP PUSH1 0x2 DUP2 DUP2 SLOAD DUP2 LT PUSH2 0x4DE JUMPI PUSH2 0x4DD PUSH2 0xCAB JUMP JUMPDEST JUMPDEST SWAP1 PUSH1 0x0 MSTORE PUSH1 0x20 PUSH1 0x0 KECCAK256 SWAP1 PUSH1 0x7 MUL ADD PUSH1 0x4 ADD SLOAD DUP4 PUSH2 0x4FB SWAP2 SWAP1 PUSH2 0x103B JUMP JUMPDEST SWAP3 POP PUSH1 0x2 DUP2 DUP2 SLOAD DUP2 LT PUSH2 0x511 JUMPI PUSH2 0x510 PUSH2 0xCAB JUMP JUMPDEST JUMPDEST SWAP1 PUSH1 0x0 MSTORE PUSH1 0x20 PUSH1 0x0 KECCAK256 SWAP1 PUSH1 0x7 MUL ADD PUSH1 0x5 ADD SLOAD DUP3 PUSH2 0x52E SWAP2 SWAP1 PUSH2 0x103B JUMP JUMPDEST SWAP2 POP DUP1 DUP1 PUSH2 0x53B SWAP1 PUSH2 0xFF3 JUMP JUMPDEST SWAP2 POP POP PUSH2 0x448 JUMP JUMPDEST POP DUP7 PUSH1 0x64 DUP6 PUSH2 0x552 SWAP2 SWAP1 PUSH2 0x106F JUMP JUMPDEST PUSH2 0x55C SWAP2 SWAP1 PUSH2 0x10E0 JUMP JUMPDEST SWAP6 POP PUSH1 0x0 DUP3 SUB PUSH2 0x579 JUMPI DUP1 DUP4 PUSH2 0x572 SWAP2 SWAP1 PUSH2 0x103B JUMP JUMPDEST SWAP5 POP PUSH2 0x593 JUMP JUMPDEST DUP2 DUP2 DUP5 PUSH2 0x586 SWAP2 SWAP1 PUSH2 0x103B JUMP JUMPDEST PUSH2 0x590 SWAP2 SWAP1 PUSH2 0x10E0 JUMP JUMPDEST SWAP5 POP JUMPDEST POP POP POP POP SWAP2 POP SWAP2 JUMP JUMPDEST PUSH1 0x0 PUSH1 0x2 DUP1 SLOAD SWAP1 POP SWAP1 POP PUSH1 0x2 PUSH1 0x40 MLOAD DUP1 PUSH1 0xE0 ADD PUSH1 0x40 MSTORE DUP1 DUP4 DUP2 MSTORE PUSH1 0x20 ADD DUP10 DUP2 MSTORE PUSH1 0x20 ADD DUP9 DUP2 MSTORE PUSH1 0x20 ADD DUP8 DUP2 MSTORE PUSH1 0x20 ADD DUP7 DUP2 MSTORE PUSH1 0x20 ADD DUP6 DUP2 MSTORE PUSH1 0x20 ADD DUP5 ISZERO ISZERO DUP2 MSTORE POP SWAP1 DUP1 PUSH1 0x1 DUP2 SLOAD ADD DUP1 DUP3 SSTORE DUP1 SWAP2 POP POP PUSH1 0x1 SWAP1 SUB SWAP1 PUSH1 0x0 MSTORE PUSH1 0x20 PUSH1 0x0 KECCAK256 SWAP1 PUSH1 0x7 MUL ADD PUSH1 0x0 SWAP1 SWAP2 SWAP1 SWAP2 SWAP1 SWAP2 POP PUSH1 0x0 DUP3 ADD MLOAD DUP2 PUSH1 0x0 ADD SSTORE PUSH1 0x20 DUP3 ADD MLOAD DUP2 PUSH1 0x1 ADD SWAP1 DUP2 PUSH2 0x625 SWAP2 SWAP1 PUSH2 0xE86 JUMP JUMPDEST POP PUSH1 0x40 DUP3 ADD MLOAD DUP2 PUSH1 0x2 ADD SWAP1 DUP2 PUSH2 0x63B SWAP2 SWAP1 PUSH2 0xE86 JUMP JUMPDEST POP PUSH1 0x60 DUP3 ADD MLOAD DUP2 PUSH1 0x3 ADD SSTORE PUSH1 0x80 DUP3 ADD MLOAD DUP2 PUSH1 0x4 ADD SSTORE PUSH1 0xA0 DUP3 ADD MLOAD DUP2 PUSH1 0x5 ADD SSTORE PUSH1 0xC0 DUP3 ADD MLOAD DUP2 PUSH1 0x6 ADD PUSH1 0x0 PUSH2 0x100 EXP DUP2 SLOAD DUP2 PUSH1 0xFF MUL NOT AND SWAP1 DUP4 ISZERO ISZERO MUL OR SWAP1 SSTORE POP POP POP PUSH1 0x2 DUP1 SLOAD SWAP1 POP PUSH1 0x1 DUP2 SWAP1 SSTORE POP POP POP POP POP POP POP POP JUMP JUMPDEST PUSH1 0x0 PUSH1 0x40 MLOAD SWAP1 POP SWAP1 JUMP JUMPDEST PUSH1 0x0 DUP1 REVERT JUMPDEST PUSH1 0x0 DUP1 REVERT JUMPDEST PUSH1 0x0 DUP2 SWAP1 POP SWAP2 SWAP1 POP JUMP JUMPDEST PUSH2 0x6B8 DUP2 PUSH2 0x6A5 JUMP JUMPDEST DUP2 EQ PUSH2 0x6C3 JUMPI PUSH1 0x0 DUP1 REVERT JUMPDEST POP JUMP JUMPDEST PUSH1 0x0 DUP2 CALLDATALOAD SWAP1 POP PUSH2 0x6D5 DUP2 PUSH2 0x6AF JUMP JUMPDEST SWAP3 SWAP2 POP POP JUMP JUMPDEST PUSH1 0x0 PUSH1 0x20 DUP3 DUP5 SUB SLT ISZERO PUSH2 0x6F1 JUMPI PUSH2 0x6F0 PUSH2 0x69B JUMP JUMPDEST JUMPDEST PUSH1 0x0 PUSH2 0x6FF DUP5 DUP3 DUP6 ADD PUSH2 0x6C6 JUMP JUMPDEST SWAP2 POP POP SWAP3 SWAP2 POP POP JUMP JUMPDEST PUSH2 0x711 DUP2 PUSH2 0x6A5 JUMP JUMPDEST DUP3 MSTORE POP POP JUMP JUMPDEST PUSH1 0x0 DUP2 MLOAD SWAP1 POP SWAP2 SWAP1 POP JUMP JUMPDEST PUSH1 0x0 DUP3 DUP3 MSTORE PUSH1 0x20 DUP3 ADD SWAP1 POP SWAP3 SWAP2 POP POP JUMP JUMPDEST PUSH1 0x0 JUMPDEST DUP4 DUP2 LT ISZERO PUSH2 0x751 JUMPI DUP1 DUP3 ADD MLOAD DUP2 DUP5 ADD MSTORE PUSH1 0x20 DUP2 ADD SWAP1 POP PUSH2 0x736 JUMP JUMPDEST PUSH1 0x0 DUP5 DUP5 ADD MSTORE POP POP POP POP JUMP JUMPDEST PUSH1 0x0 PUSH1 0x1F NOT PUSH1 0x1F DUP4 ADD AND SWAP1 POP SWAP2 SWAP1 POP JUMP JUMPDEST PUSH1 0x0 PUSH2 0x779 DUP3 PUSH2 0x717 JUMP JUMPDEST PUSH2 0x783 DUP2 DUP6 PUSH2 0x722 JUMP JUMPDEST SWAP4 POP PUSH2 0x793 DUP2 DUP6 PUSH1 0x20 DUP7 ADD PUSH2 0x733 JUMP JUMPDEST PUSH2 0x79C DUP2 PUSH2 0x75D JUMP JUMPDEST DUP5 ADD SWAP2 POP POP SWAP3 SWAP2 POP POP JUMP JUMPDEST PUSH1 0x0 DUP2 ISZERO ISZERO SWAP1 POP SWAP2 SWAP1 POP JUMP JUMPDEST PUSH2 0x7BC DUP2 PUSH2 0x7A7 JUMP JUMPDEST DUP3 MSTORE POP POP JUMP JUMPDEST PUSH1 0x0 PUSH1 0xE0 DUP3 ADD SWAP1 POP PUSH2 0x7D7 PUSH1 0x0 DUP4 ADD DUP11 PUSH2 0x708 JUMP JUMPDEST DUP2 DUP2 SUB PUSH1 0x20 DUP4 ADD MSTORE PUSH2 0x7E9 DUP2 DUP10 PUSH2 0x76E JUMP JUMPDEST SWAP1 POP DUP2 DUP2 SUB PUSH1 0x40 DUP4 ADD MSTORE PUSH2 0x7FD DUP2 DUP9 PUSH2 0x76E JUMP JUMPDEST SWAP1 POP PUSH2 0x80C PUSH1 0x60 DUP4 ADD DUP8 PUSH2 0x708 JUMP JUMPDEST PUSH2 0x819 PUSH1 0x80 DUP4 ADD DUP7 PUSH2 0x708 JUMP JUMPDEST PUSH2 0x826 PUSH1 0xA0 DUP4 ADD DUP6 PUSH2 0x708 JUMP JUMPDEST PUSH2 0x833 PUSH1 0xC0 DUP4 ADD DUP5 PUSH2 0x7B3 JUMP JUMPDEST SWAP9 SWAP8 POP POP POP POP POP POP POP POP JUMP JUMPDEST PUSH1 0x0 DUP1 REVERT JUMPDEST PUSH1 0x0 DUP1 REVERT JUMPDEST PUSH32 0x4E487B7100000000000000000000000000000000000000000000000000000000 PUSH1 0x0 MSTORE PUSH1 0x41 PUSH1 0x4 MSTORE PUSH1 0x24 PUSH1 0x0 REVERT JUMPDEST PUSH2 0x881 DUP3 PUSH2 0x75D JUMP JUMPDEST DUP2 ADD DUP2 DUP2 LT PUSH8 0xFFFFFFFFFFFFFFFF DUP3 GT OR ISZERO PUSH2 0x8A0 JUMPI PUSH2 0x89F PUSH2 0x849 JUMP JUMPDEST JUMPDEST DUP1 PUSH1 0x40 MSTORE POP POP POP JUMP JUMPDEST PUSH1 0x0 PUSH2 0x8B3 PUSH2 0x691 JUMP JUMPDEST SWAP1 POP PUSH2 0x8BF DUP3 DUP3 PUSH2 0x878 JUMP JUMPDEST SWAP2 SWAP1 POP JUMP JUMPDEST PUSH1 0x0 PUSH8 0xFFFFFFFFFFFFFFFF DUP3 GT ISZERO PUSH2 0x8DF JUMPI PUSH2 0x8DE PUSH2 0x849 JUMP JUMPDEST JUMPDEST PUSH2 0x8E8 DUP3 PUSH2 0x75D JUMP JUMPDEST SWAP1 POP PUSH1 0x20 DUP2 ADD SWAP1 POP SWAP2 SWAP1 POP JUMP JUMPDEST DUP3 DUP2 DUP4 CALLDATACOPY PUSH1 0x0 DUP4 DUP4 ADD MSTORE POP POP POP JUMP JUMPDEST PUSH1 0x0 PUSH2 0x917 PUSH2 0x912 DUP5 PUSH2 0x8C4 JUMP JUMPDEST PUSH2 0x8A9 JUMP JUMPDEST SWAP1 POP DUP3 DUP2 MSTORE PUSH1 0x20 DUP2 ADD DUP5 DUP5 DUP5 ADD GT ISZERO PUSH2 0x933 JUMPI PUSH2 0x932 PUSH2 0x844 JUMP JUMPDEST JUMPDEST PUSH2 0x93E DUP5 DUP3 DUP6 PUSH2 0x8F5 JUMP JUMPDEST POP SWAP4 SWAP3 POP POP POP JUMP JUMPDEST PUSH1 0x0 DUP3 PUSH1 0x1F DUP4 ADD SLT PUSH2 0x95B JUMPI PUSH2 0x95A PUSH2 0x83F JUMP JUMPDEST JUMPDEST DUP2 CALLDATALOAD PUSH2 0x96B DUP5 DUP3 PUSH1 0x20 DUP7 ADD PUSH2 0x904 JUMP JUMPDEST SWAP2 POP POP SWAP3 SWAP2 POP POP JUMP JUMPDEST PUSH2 0x97D DUP2 PUSH2 0x7A7 JUMP JUMPDEST DUP2 EQ PUSH2 0x988 JUMPI PUSH1 0x0 DUP1 REVERT JUMPDEST POP JUMP JUMPDEST PUSH1 0x0 DUP2 CALLDATALOAD SWAP1 POP PUSH2 0x99A DUP2 PUSH2 0x974 JUMP JUMPDEST SWAP3 SWAP2 POP POP JUMP JUMPDEST PUSH1 0x0 DUP1 PUSH1 0x0 DUP1 PUSH1 0x0 DUP1 PUSH1 0x0 PUSH1 0xE0 DUP9 DUP11 SUB SLT ISZERO PUSH2 0x9BF JUMPI PUSH2 0x9BE PUSH2 0x69B JUMP JUMPDEST JUMPDEST PUSH1 0x0 PUSH2 0x9CD DUP11 DUP3 DUP12 ADD PUSH2 0x6C6 JUMP JUMPDEST SWAP8 POP POP PUSH1 0x20 DUP9 ADD CALLDATALOAD PUSH8 0xFFFFFFFFFFFFFFFF DUP2 GT ISZERO PUSH2 0x9EE JUMPI PUSH2 0x9ED PUSH2 0x6A0 JUMP JUMPDEST JUMPDEST PUSH2 0x9FA DUP11 DUP3 DUP12 ADD PUSH2 0x946 JUMP JUMPDEST SWAP7 POP POP PUSH1 0x40 DUP9 ADD CALLDATALOAD PUSH8 0xFFFFFFFFFFFFFFFF DUP2 GT ISZERO PUSH2 0xA1B JUMPI PUSH2 0xA1A PUSH2 0x6A0 JUMP JUMPDEST JUMPDEST PUSH2 0xA27 DUP11 DUP3 DUP12 ADD PUSH2 0x946 JUMP JUMPDEST SWAP6 POP POP PUSH1 0x60 PUSH2 0xA38 DUP11 DUP3 DUP12 ADD PUSH2 0x6C6 JUMP JUMPDEST SWAP5 POP POP PUSH1 0x80 PUSH2 0xA49 DUP11 DUP3 DUP12 ADD PUSH2 0x6C6 JUMP JUMPDEST SWAP4 POP POP PUSH1 0xA0 PUSH2 0xA5A DUP11 DUP3 DUP12 ADD PUSH2 0x6C6 JUMP JUMPDEST SWAP3 POP POP PUSH1 0xC0 PUSH2 0xA6B DUP11 DUP3 DUP12 ADD PUSH2 0x98B JUMP JUMPDEST SWAP2 POP POP SWAP3 SWAP6 SWAP9 SWAP2 SWAP5 SWAP8 POP SWAP3 SWAP6 POP JUMP JUMPDEST PUSH1 0x0 PUSH20 0xFFFFFFFFFFFFFFFFFFFFFFFFFFFFFFFFFFFFFFFF DUP3 AND SWAP1 POP SWAP2 SWAP1 POP JUMP JUMPDEST PUSH1 0x0 PUSH2 0xAA5 DUP3 PUSH2 0xA7A JUMP JUMPDEST SWAP1 POP SWAP2 SWAP1 POP JUMP JUMPDEST PUSH2 0xAB5 DUP2 PUSH2 0xA9A JUMP JUMPDEST DUP3 MSTORE POP POP JUMP JUMPDEST PUSH1 0x0 PUSH1 0x20 DUP3 ADD SWAP1 POP PUSH2 0xAD0 PUSH1 0x0 DUP4 ADD DUP5 PUSH2 0xAAC JUMP JUMPDEST SWAP3 SWAP2 POP POP JUMP JUMPDEST PUSH1 0x0 PUSH1 0x20 DUP3 ADD SWAP1 POP PUSH2 0xAEB PUSH1 0x0 DUP4 ADD DUP5 PUSH2 0x708 JUMP JUMPDEST SWAP3 SWAP2 POP POP JUMP JUMPDEST PUSH1 0x0 PUSH1 0x40 DUP3 ADD SWAP1 POP PUSH2 0xB06 PUSH1 0x0 DUP4 ADD DUP6 PUSH2 0x708 JUMP JUMPDEST PUSH2 0xB13 PUSH1 0x20 DUP4 ADD DUP5 PUSH2 0x708 JUMP JUMPDEST SWAP4 SWAP3 POP POP POP JUMP JUMPDEST PUSH1 0x0 DUP1 PUSH1 0x0 DUP1 PUSH1 0x0 DUP1 PUSH1 0xC0 DUP8 DUP10 SUB SLT ISZERO PUSH2 0xB37 JUMPI PUSH2 0xB36 PUSH2 0x69B JUMP JUMPDEST JUMPDEST PUSH1 0x0 DUP8 ADD CALLDATALOAD PUSH8 0xFFFFFFFFFFFFFFFF DUP2 GT ISZERO PUSH2 0xB55 JUMPI PUSH2 0xB54 PUSH2 0x6A0 JUMP JUMPDEST JUMPDEST PUSH2 0xB61 DUP10 DUP3 DUP11 ADD PUSH2 0x946 JUMP JUMPDEST SWAP7 POP POP PUSH1 0x20 DUP8 ADD CALLDATALOAD PUSH8 0xFFFFFFFFFFFFFFFF DUP2 GT ISZERO PUSH2 0xB82 JUMPI PUSH2 0xB81 PUSH2 0x6A0 JUMP JUMPDEST JUMPDEST PUSH2 0xB8E DUP10 DUP3 DUP11 ADD PUSH2 0x946 JUMP JUMPDEST SWAP6 POP POP PUSH1 0x40 PUSH2 0xB9F DUP10 DUP3 DUP11 ADD PUSH2 0x6C6 JUMP JUMPDEST SWAP5 POP POP PUSH1 0x60 PUSH2 0xBB0 DUP10 DUP3 DUP11 ADD PUSH2 0x6C6 JUMP JUMPDEST SWAP4 POP POP PUSH1 0x80 PUSH2 0xBC1 DUP10 DUP3 DUP11 ADD PUSH2 0x6C6 JUMP JUMPDEST SWAP3 POP POP PUSH1 0xA0 PUSH2 0xBD2 DUP10 DUP3 DUP11 ADD PUSH2 0x98B JUMP JUMPDEST SWAP2 POP POP SWAP3 SWAP6 POP SWAP3 SWAP6 POP SWAP3 SWAP6 JUMP JUMPDEST PUSH32 0x4E487B7100000000000000000000000000000000000000000000000000000000 PUSH1 0x0 MSTORE PUSH1 0x22 PUSH1 0x4 MSTORE PUSH1 0x24 PUSH1 0x0 REVERT JUMPDEST PUSH1 0x0 PUSH1 0x2 DUP3 DIV SWAP1 POP PUSH1 0x1 DUP3 AND DUP1 PUSH2 0xC26 JUMPI PUSH1 0x7F DUP3 AND SWAP2 POP JUMPDEST PUSH1 0x20 DUP3 LT DUP2 SUB PUSH2 0xC39 JUMPI PUSH2 0xC38 PUSH2 0xBDF JUMP JUMPDEST JUMPDEST POP SWAP2 SWAP1 POP JUMP JUMPDEST PUSH32 0x70617274696461206E616F206578697374650000000000000000000000000000 PUSH1 0x0 DUP3 ADD MSTORE POP JUMP JUMPDEST PUSH1 0x0 PUSH2 0xC75 PUSH1 0x12 DUP4 PUSH2 0x722 JUMP JUMPDEST SWAP2 POP PUSH2 0xC80 DUP3 PUSH2 0xC3F JUMP JUMPDEST PUSH1 0x20 DUP3 ADD SWAP1 POP SWAP2 SWAP1 POP JUMP JUMPDEST PUSH1 0x0 PUSH1 0x20 DUP3 ADD SWAP1 POP DUP2 DUP2 SUB PUSH1 0x0 DUP4 ADD MSTORE PUSH2 0xCA4 DUP2 PUSH2 0xC68 JUMP JUMPDEST SWAP1 POP SWAP2 SWAP1 POP JUMP JUMPDEST PUSH32 0x4E487B7100000000000000000000000000000000000000000000000000000000 PUSH1 0x0 MSTORE PUSH1 0x32 PUSH1 0x4 MSTORE PUSH1 0x24 PUSH1 0x0 REVERT JUMPDEST PUSH1 0x0 DUP2 SWAP1 POP DUP2 PUSH1 0x0 MSTORE PUSH1 0x20 PUSH1 0x0 KECCAK256 SWAP1 POP SWAP2 SWAP1 POP JUMP JUMPDEST PUSH1 0x0 PUSH1 0x20 PUSH1 0x1F DUP4 ADD DIV SWAP1 POP SWAP2 SWAP1 POP JUMP JUMPDEST PUSH1 0x0 DUP3 DUP3 SHL SWAP1 POP SWAP3 SWAP2 POP POP JUMP JUMPDEST PUSH1 0x0 PUSH1 0x8 DUP4 MUL PUSH2 0xD3C PUSH32 0xFFFFFFFFFFFFFFFFFFFFFFFFFFFFFFFFFFFFFFFFFFFFFFFFFFFFFFFFFFFFFFFF DUP3 PUSH2 0xCFF JUMP JUMPDEST PUSH2 0xD46 DUP7 DUP4 PUSH2 0xCFF JUMP JUMPDEST SWAP6 POP DUP1 NOT DUP5 AND SWAP4 POP DUP1 DUP7 AND DUP5 OR SWAP3 POP POP POP SWAP4 SWAP3 POP POP POP JUMP JUMPDEST PUSH1 0x0 DUP2 SWAP1 POP SWAP2 SWAP1 POP JUMP JUMPDEST PUSH1 0x0 PUSH2 0xD83 PUSH2 0xD7E PUSH2 0xD79 DUP5 PUSH2 0x6A5 JUMP JUMPDEST PUSH2 0xD5E JUMP JUMPDEST PUSH2 0x6A5 JUMP JUMPDEST SWAP1 POP SWAP2 SWAP1 POP JUMP JUMPDEST PUSH1 0x0 DUP2 SWAP1 POP SWAP2 SWAP1 POP JUMP JUMPDEST PUSH2 0xD9D DUP4 PUSH2 0xD68 JUMP JUMPDEST PUSH2 0xDB1 PUSH2 0xDA9 DUP3 PUSH2 0xD8A JUMP JUMPDEST DUP5 DUP5 SLOAD PUSH2 0xD0C JUMP JUMPDEST DUP3 SSTORE POP POP POP POP JUMP JUMPDEST PUSH1 0x0 SWAP1 JUMP JUMPDEST PUSH2 0xDC6 PUSH2 0xDB9 JUMP JUMPDEST PUSH2 0xDD1 DUP2 DUP5 DUP5 PUSH2 0xD94 JUMP JUMPDEST POP POP POP JUMP JUMPDEST JUMPDEST DUP2 DUP2 LT ISZERO PUSH2 0xDF5 JUMPI PUSH2 0xDEA PUSH1 0x0 DUP3 PUSH2 0xDBE JUMP JUMPDEST PUSH1 0x1 DUP2 ADD SWAP1 POP PUSH2 0xDD7 JUMP JUMPDEST POP POP JUMP JUMPDEST PUSH1 0x1F DUP3 GT ISZERO PUSH2 0xE3A JUMPI PUSH2 0xE0B DUP2 PUSH2 0xCDA JUMP JUMPDEST PUSH2 0xE14 DUP5 PUSH2 0xCEF JUMP JUMPDEST DUP2 ADD PUSH1 0x20 DUP6 LT ISZERO PUSH2 0xE23 JUMPI DUP2 SWAP1 POP JUMPDEST PUSH2 0xE37 PUSH2 0xE2F DUP6 PUSH2 0xCEF JUMP JUMPDEST DUP4 ADD DUP3 PUSH2 0xDD6 JUMP JUMPDEST POP POP JUMPDEST POP POP POP JUMP JUMPDEST PUSH1 0x0 DUP3 DUP3 SHR SWAP1 POP SWAP3 SWAP2 POP POP JUMP JUMPDEST PUSH1 0x0 PUSH2 0xE5D PUSH1 0x0 NOT DUP5 PUSH1 0x8 MUL PUSH2 0xE3F JUMP JUMPDEST NOT DUP1 DUP4 AND SWAP2 POP POP SWAP3 SWAP2 POP POP JUMP JUMPDEST PUSH1 0x0 PUSH2 0xE76 DUP4 DUP4 PUSH2 0xE4C JUMP JUMPDEST SWAP2 POP DUP3 PUSH1 0x2 MUL DUP3 OR SWAP1 POP SWAP3 SWAP2 POP POP JUMP JUMPDEST PUSH2 0xE8F DUP3 PUSH2 0x717 JUMP JUMPDEST PUSH8 0xFFFFFFFFFFFFFFFF DUP2 GT ISZERO PUSH2 0xEA8 JUMPI PUSH2 0xEA7 PUSH2 0x849 JUMP JUMPDEST JUMPDEST PUSH2 0xEB2 DUP3 SLOAD PUSH2 0xC0E JUMP JUMPDEST PUSH2 0xEBD DUP3 DUP3 DUP6 PUSH2 0xDF9 JUMP JUMPDEST PUSH1 0x0 PUSH1 0x20 SWAP1 POP PUSH1 0x1F DUP4 GT PUSH1 0x1 DUP2 EQ PUSH2 0xEF0 JUMPI PUSH1 0x0 DUP5 ISZERO PUSH2 0xEDE JUMPI DUP3 DUP8 ADD MLOAD SWAP1 POP JUMPDEST PUSH2 0xEE8 DUP6 DUP3 PUSH2 0xE6A JUMP JUMPDEST DUP7 SSTORE POP PUSH2 0xF50 JUMP JUMPDEST PUSH1 0x1F NOT DUP5 AND PUSH2 0xEFE DUP7 PUSH2 0xCDA JUMP JUMPDEST PUSH1 0x0 JUMPDEST DUP3 DUP2 LT ISZERO PUSH2 0xF26 JUMPI DUP5 DUP10 ADD MLOAD DUP3 SSTORE PUSH1 0x1 DUP3 ADD SWAP2 POP PUSH1 0x20 DUP6 ADD SWAP5 POP PUSH1 0x20 DUP2 ADD SWAP1 POP PUSH2 0xF01 JUMP JUMPDEST DUP7 DUP4 LT ISZERO PUSH2 0xF43 JUMPI DUP5 DUP10 ADD MLOAD PUSH2 0xF3F PUSH1 0x1F DUP10 AND DUP3 PUSH2 0xE4C JUMP JUMPDEST DUP4 SSTORE POP JUMPDEST PUSH1 0x1 PUSH1 0x2 DUP9 MUL ADD DUP9 SSTORE POP POP POP JUMPDEST POP POP POP POP POP POP JUMP JUMPDEST PUSH32 0x5175616E74696461646520646520706172746964617320696E76616C69646100 PUSH1 0x0 DUP3 ADD MSTORE POP JUMP JUMPDEST PUSH1 0x0 PUSH2 0xF8E PUSH1 0x1F DUP4 PUSH2 0x722 JUMP JUMPDEST SWAP2 POP PUSH2 0xF99 DUP3 PUSH2 0xF58 JUMP JUMPDEST PUSH1 0x20 DUP3 ADD SWAP1 POP SWAP2 SWAP1 POP JUMP JUMPDEST PUSH1 0x0 PUSH1 0x20 DUP3 ADD SWAP1 POP DUP2 DUP2 SUB PUSH1 0x0 DUP4 ADD MSTORE PUSH2 0xFBD DUP2 PUSH2 0xF81 JUMP JUMPDEST SWAP1 POP SWAP2 SWAP1 POP JUMP JUMPDEST PUSH32 0x4E487B7100000000000000000000000000000000000000000000000000000000 PUSH1 0x0 MSTORE PUSH1 0x11 PUSH1 0x4 MSTORE PUSH1 0x24 PUSH1 0x0 REVERT JUMPDEST PUSH1 0x0 PUSH2 0xFFE DUP3 PUSH2 0x6A5 JUMP JUMPDEST SWAP2 POP PUSH32 0xFFFFFFFFFFFFFFFFFFFFFFFFFFFFFFFFFFFFFFFFFFFFFFFFFFFFFFFFFFFFFFFF DUP3 SUB PUSH2 0x1030 JUMPI PUSH2 0x102F PUSH2 0xFC4 JUMP JUMPDEST JUMPDEST PUSH1 0x1 DUP3 ADD SWAP1 POP SWAP2 SWAP1 POP JUMP JUMPDEST PUSH1 0x0 PUSH2 0x1046 DUP3 PUSH2 0x6A5 JUMP JUMPDEST SWAP2 POP PUSH2 0x1051 DUP4 PUSH2 0x6A5 JUMP JUMPDEST SWAP3 POP DUP3 DUP3 ADD SWAP1 POP DUP1 DUP3 GT ISZERO PUSH2 0x1069 JUMPI PUSH2 0x1068 PUSH2 0xFC4 JUMP JUMPDEST JUMPDEST SWAP3 SWAP2 POP POP JUMP JUMPDEST PUSH1 0x0 PUSH2 0x107A DUP3 PUSH2 0x6A5 JUMP JUMPDEST SWAP2 POP PUSH2 0x1085 DUP4 PUSH2 0x6A5 JUMP JUMPDEST SWAP3 POP DUP3 DUP3 MUL PUSH2 0x1093 DUP2 PUSH2 0x6A5 JUMP JUMPDEST SWAP2 POP DUP3 DUP3 DIV DUP5 EQ DUP4 ISZERO OR PUSH2 0x10AA JUMPI PUSH2 0x10A9 PUSH2 0xFC4 JUMP JUMPDEST JUMPDEST POP SWAP3 SWAP2 POP POP JUMP JUMPDEST PUSH32 0x4E487B7100000000000000000000000000000000000000000000000000000000 PUSH1 0x0 MSTORE PUSH1 0x12 PUSH1 0x4 MSTORE PUSH1 0x24 PUSH1 0x0 REVERT JUMPDEST PUSH1 0x0 PUSH2 0x10EB DUP3 PUSH2 0x6A5 JUMP JUMPDEST SWAP2 POP PUSH2 0x10F6 DUP4 PUSH2 0x6A5 JUMP JUMPDEST SWAP3 POP DUP3 PUSH2 0x1106 JUMPI PUSH2 0x1105 PUSH2 0x10B1 JUMP JUMPDEST JUMPDEST DUP3 DUP3 DIV SWAP1 POP SWAP3 SWAP2 POP POP JUMP INVALID LOG2 PUSH5 0x6970667358 0x22 SLT KECCAK256 PUSH3 0xF5A055 LOG2 DIV 0xD1 0xDD 0xE2 CALLDATASIZE 0x4B 0xE9 0xE1 STATICCALL 0xA7 SAR SHL 0xCA 0x2E 0xD4 SMOD CALLDATACOPY 0x28 0xF6 0xD1 0xD6 0xA9 0xAC PUSH17 0x7301CE64736F6C63430008130033000000 "},"methodIdentifiers":{"CalculaWinKda(uint256)":"a7c11f5b","createGame(string,string,uint256,uint256,uint256,bool)":"dc53b77c","games(uint256)":"117a5b90","itemCont()":"a2dfeb17","owner()":"8da5cb5b","updateGame(uint256,string,string,uint256,uint256,uint256,bool)":"504b35f6"}}}}}