{
  "_format": "hh-sol-artifact-1",
  "contractName": "Polichain",
  "sourceName": "contracts/Polichain.sol",
  "abi": [
    {
      "inputs": [
        {
          "internalType": "uint256",
          "name": "numeroPartidas",
          "type": "uint256"
        }
      ],
      "name": "CalculaWinKda",
      "outputs": [
        {
          "internalType": "uint256",
          "name": "winrate",
          "type": "uint256"
        },
        {
          "internalType": "uint256",
          "name": "kda",
          "type": "uint256"
        }
      ],
      "stateMutability": "view",
      "type": "function"
    },
    {
      "inputs": [
        {
          "internalType": "string",
          "name": "_championName",
          "type": "string"
        },
        {
          "internalType": "string",
          "name": "_role",
          "type": "string"
        },
        {
          "internalType": "uint256",
          "name": "_kills",
          "type": "uint256"
        },
        {
          "internalType": "uint256",
          "name": "_deaths",
          "type": "uint256"
        },
        {
          "internalType": "uint256",
          "name": "_assists",
          "type": "uint256"
        },
        {
          "internalType": "bool",
          "name": "_result",
          "type": "bool"
        }
      ],
      "name": "createGame",
      "outputs": [],
      "stateMutability": "nonpayable",
      "type": "function"
    },
    {
      "inputs": [
        {
          "internalType": "uint256",
          "name": "",
          "type": "uint256"
        }
      ],
      "name": "games",
      "outputs": [
        {
          "internalType": "uint256",
          "name": "id",
          "type": "uint256"
        },
        {
          "internalType": "string",
          "name": "championName",
          "type": "string"
        },
        {
          "internalType": "string",
          "name": "role",
          "type": "string"
        },
        {
          "internalType": "uint256",
          "name": "kills",
          "type": "uint256"
        },
        {
          "internalType": "uint256",
          "name": "deaths",
          "type": "uint256"
        },
        {
          "internalType": "uint256",
          "name": "assists",
          "type": "uint256"
        },
        {
          "internalType": "bool",
          "name": "result",
          "type": "bool"
        }
      ],
      "stateMutability": "view",
      "type": "function"
    },
    {
      "inputs": [],
      "name": "itemCont",
      "outputs": [
        {
          "internalType": "uint256",
          "name": "",
          "type": "uint256"
        }
      ],
      "stateMutability": "view",
      "type": "function"
    },
    {
      "inputs": [],
      "name": "owner",
      "outputs": [
        {
          "internalType": "address",
          "name": "",
          "type": "address"
        }
      ],
      "stateMutability": "view",
      "type": "function"
    },
    {
      "inputs": [
        {
          "internalType": "uint256",
          "name": "novoId",
          "type": "uint256"
        },
        {
          "internalType": "string",
          "name": "_championName",
          "type": "string"
        },
        {
          "internalType": "string",
          "name": "_role",
          "type": "string"
        },
        {
          "internalType": "uint256",
          "name": "_kills",
          "type": "uint256"
        },
        {
          "internalType": "uint256",
          "name": "_deaths",
          "type": "uint256"
        },
        {
          "internalType": "uint256",
          "name": "_assists",
          "type": "uint256"
        },
        {
          "internalType": "bool",
          "name": "_result",
          "type": "bool"
        }
      ],
      "name": "updateGame",
      "outputs": [],
      "stateMutability": "nonpayable",
      "type": "function"
    }
  ],
  "bytecode": "0x608060405234801561001057600080fd5b50611147806100206000396000f3fe608060405234801561001057600080fd5b50600436106100625760003560e01c8063117a5b9014610067578063504b35f61461009d5780638da5cb5b146100b9578063a2dfeb17146100d7578063a7c11f5b146100f5578063dc53b77c14610126575b600080fd5b610081600480360381019061007c91906106db565b610142565b60405161009497969594939291906107c2565b60405180910390f35b6100b760048036038101906100b291906109a0565b6102b1565b005b6100c16103cf565b6040516100ce9190610abb565b60405180910390f35b6100df6103f3565b6040516100ec9190610ad6565b60405180910390f35b61010f600480360381019061010a91906106db565b6103f9565b60405161011d929190610af1565b60405180910390f35b610140600480360381019061013b9190610b1a565b61059c565b005b6002818154811061015257600080fd5b906000526020600020906007020160009150905080600001549080600101805461017b90610c0e565b80601f01602080910402602001604051908101604052809291908181526020018280546101a790610c0e565b80156101f45780601f106101c9576101008083540402835291602001916101f4565b820191906000526020600020905b8154815290600101906020018083116101d757829003601f168201915b50505050509080600201805461020990610c0e565b80601f016020809104026020016040519081016040528092919081815260200182805461023590610c0e565b80156102825780601f1061025757610100808354040283529160200191610282565b820191906000526020600020905b81548152906001019060200180831161026557829003601f168201915b5050505050908060030154908060040154908060050154908060060160009054906101000a900460ff16905087565b60028054905087106102f8576040517f08c379a00000000000000000000000000000000000000000000000000000000081526004016102ef90610c8b565b60405180910390fd5b6040518060e001604052808881526020018781526020018681526020018581526020018481526020018381526020018215158152506002888154811061034157610340610cab565b5b906000526020600020906007020160008201518160000155602082015181600101908161036e9190610e86565b5060408201518160020190816103849190610e86565b50606082015181600301556080820151816004015560a0820151816005015560c08201518160060160006101000a81548160ff02191690831515021790555090505050505050505050565b60008054906101000a900473ffffffffffffffffffffffffffffffffffffffff1681565b60015481565b6000806000831161043f576040517f08c379a000000000000000000000000000000000000000000000000000000000815260040161043690610fa4565b60405180910390fd5b60008060008060005b87811015610543576002818154811061046457610463610cab565b5b906000526020600020906007020160060160009054906101000a900460ff161561049757848061049390610ff3565b9550505b600281815481106104ab576104aa610cab565b5b906000526020600020906007020160030154846104c8919061103b565b9350600281815481106104de576104dd610cab565b5b906000526020600020906007020160040154836104fb919061103b565b92506002818154811061051157610510610cab565b5b9060005260206000209060070201600501548261052e919061103b565b9150808061053b90610ff3565b915050610448565b5086606485610552919061106f565b61055c91906110e0565b955060008203610579578083610572919061103b565b9450610593565b818184610586919061103b565b61059091906110e0565b94505b50505050915091565b6000600280549050905060026040518060e0016040528083815260200189815260200188815260200187815260200186815260200185815260200184151581525090806001815401808255809150506001900390600052602060002090600702016000909190919091506000820151816000015560208201518160010190816106259190610e86565b50604082015181600201908161063b9190610e86565b50606082015181600301556080820151816004015560a0820151816005015560c08201518160060160006101000a81548160ff021916908315150217905550505060028054905060018190555050505050505050565b6000604051905090565b600080fd5b600080fd5b6000819050919050565b6106b8816106a5565b81146106c357600080fd5b50565b6000813590506106d5816106af565b92915050565b6000602082840312156106f1576106f061069b565b5b60006106ff848285016106c6565b91505092915050565b610711816106a5565b82525050565b600081519050919050565b600082825260208201905092915050565b60005b83811015610751578082015181840152602081019050610736565b60008484015250505050565b6000601f19601f8301169050919050565b600061077982610717565b6107838185610722565b9350610793818560208601610733565b61079c8161075d565b840191505092915050565b60008115159050919050565b6107bc816107a7565b82525050565b600060e0820190506107d7600083018a610708565b81810360208301526107e9818961076e565b905081810360408301526107fd818861076e565b905061080c6060830187610708565b6108196080830186610708565b61082660a0830185610708565b61083360c08301846107b3565b98975050505050505050565b600080fd5b600080fd5b7f4e487b7100000000000000000000000000000000000000000000000000000000600052604160045260246000fd5b6108818261075d565b810181811067ffffffffffffffff821117156108a05761089f610849565b5b80604052505050565b60006108b3610691565b90506108bf8282610878565b919050565b600067ffffffffffffffff8211156108df576108de610849565b5b6108e88261075d565b9050602081019050919050565b82818337600083830152505050565b6000610917610912846108c4565b6108a9565b90508281526020810184848401111561093357610932610844565b5b61093e8482856108f5565b509392505050565b600082601f83011261095b5761095a61083f565b5b813561096b848260208601610904565b91505092915050565b61097d816107a7565b811461098857600080fd5b50565b60008135905061099a81610974565b92915050565b600080600080600080600060e0888a0312156109bf576109be61069b565b5b60006109cd8a828b016106c6565b975050602088013567ffffffffffffffff8111156109ee576109ed6106a0565b5b6109fa8a828b01610946565b965050604088013567ffffffffffffffff811115610a1b57610a1a6106a0565b5b610a278a828b01610946565b9550506060610a388a828b016106c6565b9450506080610a498a828b016106c6565b93505060a0610a5a8a828b016106c6565b92505060c0610a6b8a828b0161098b565b91505092959891949750929550565b600073ffffffffffffffffffffffffffffffffffffffff82169050919050565b6000610aa582610a7a565b9050919050565b610ab581610a9a565b82525050565b6000602082019050610ad06000830184610aac565b92915050565b6000602082019050610aeb6000830184610708565b92915050565b6000604082019050610b066000830185610708565b610b136020830184610708565b9392505050565b60008060008060008060c08789031215610b3757610b3661069b565b5b600087013567ffffffffffffffff811115610b5557610b546106a0565b5b610b6189828a01610946565b965050602087013567ffffffffffffffff811115610b8257610b816106a0565b5b610b8e89828a01610946565b9550506040610b9f89828a016106c6565b9450506060610bb089828a016106c6565b9350506080610bc189828a016106c6565b92505060a0610bd289828a0161098b565b9150509295509295509295565b7f4e487b7100000000000000000000000000000000000000000000000000000000600052602260045260246000fd5b60006002820490506001821680610c2657607f821691505b602082108103610c3957610c38610bdf565b5b50919050565b7f70617274696461206e616f206578697374650000000000000000000000000000600082015250565b6000610c75601283610722565b9150610c8082610c3f565b602082019050919050565b60006020820190508181036000830152610ca481610c68565b9050919050565b7f4e487b7100000000000000000000000000000000000000000000000000000000600052603260045260246000fd5b60008190508160005260206000209050919050565b60006020601f8301049050919050565b600082821b905092915050565b600060088302610d3c7fffffffffffffffffffffffffffffffffffffffffffffffffffffffffffffffff82610cff565b610d468683610cff565b95508019841693508086168417925050509392505050565b6000819050919050565b6000610d83610d7e610d79846106a5565b610d5e565b6106a5565b9050919050565b6000819050919050565b610d9d83610d68565b610db1610da982610d8a565b848454610d0c565b825550505050565b600090565b610dc6610db9565b610dd1818484610d94565b505050565b5b81811015610df557610dea600082610dbe565b600181019050610dd7565b5050565b601f821115610e3a57610e0b81610cda565b610e1484610cef565b81016020851015610e23578190505b610e37610e2f85610cef565b830182610dd6565b50505b505050565b600082821c905092915050565b6000610e5d60001984600802610e3f565b1980831691505092915050565b6000610e768383610e4c565b9150826002028217905092915050565b610e8f82610717565b67ffffffffffffffff811115610ea857610ea7610849565b5b610eb28254610c0e565b610ebd828285610df9565b600060209050601f831160018114610ef05760008415610ede578287015190505b610ee88582610e6a565b865550610f50565b601f198416610efe86610cda565b60005b82811015610f2657848901518255600182019150602085019450602081019050610f01565b86831015610f435784890151610f3f601f891682610e4c565b8355505b6001600288020188555050505b505050505050565b7f5175616e74696461646520646520706172746964617320696e76616c69646100600082015250565b6000610f8e601f83610722565b9150610f9982610f58565b602082019050919050565b60006020820190508181036000830152610fbd81610f81565b9050919050565b7f4e487b7100000000000000000000000000000000000000000000000000000000600052601160045260246000fd5b6000610ffe826106a5565b91507fffffffffffffffffffffffffffffffffffffffffffffffffffffffffffffffff82036110305761102f610fc4565b5b600182019050919050565b6000611046826106a5565b9150611051836106a5565b925082820190508082111561106957611068610fc4565b5b92915050565b600061107a826106a5565b9150611085836106a5565b9250828202611093816106a5565b915082820484148315176110aa576110a9610fc4565b5b5092915050565b7f4e487b7100000000000000000000000000000000000000000000000000000000600052601260045260246000fd5b60006110eb826106a5565b91506110f6836106a5565b925082611106576111056110b1565b5b82820490509291505056fea264697066735822122062f5a055a204d1dde2364be9e1faa71d1bca2ed4073728f6d1d6a9ac707301ce64736f6c63430008130033",
  "linkReferences": {},
  "deployedLinkReferences": {}
}